{
  "contractName": "Token",
  "abi": [
    {
      "inputs": [],
      "stateMutability": "nonpayable",
      "type": "constructor"
    },
    {
      "anonymous": false,
      "inputs": [
        {
          "indexed": true,
          "internalType": "address",
          "name": "owner",
          "type": "address"
        },
        {
          "indexed": true,
          "internalType": "address",
          "name": "spender",
          "type": "address"
        },
        {
          "indexed": false,
          "internalType": "uint256",
          "name": "amount",
          "type": "uint256"
        }
      ],
      "name": "Approve",
      "type": "event"
    },
    {
      "anonymous": false,
      "inputs": [
        {
          "indexed": true,
          "internalType": "address",
          "name": "from",
          "type": "address"
        },
        {
          "indexed": true,
          "internalType": "address",
          "name": "to",
          "type": "address"
        },
        {
          "indexed": false,
          "internalType": "uint256",
          "name": "amount",
          "type": "uint256"
        }
      ],
      "name": "Transfer",
      "type": "event"
    },
    {
      "inputs": [
        {
          "internalType": "address",
          "name": "",
          "type": "address"
        },
        {
          "internalType": "address",
          "name": "",
          "type": "address"
        }
      ],
      "name": "allowance",
      "outputs": [
        {
          "internalType": "uint256",
          "name": "",
          "type": "uint256"
        }
      ],
      "stateMutability": "view",
      "type": "function"
    },
    {
      "inputs": [
        {
          "internalType": "address",
          "name": "",
          "type": "address"
        }
      ],
      "name": "balancOf",
      "outputs": [
        {
          "internalType": "uint256",
          "name": "",
          "type": "uint256"
        }
      ],
      "stateMutability": "view",
      "type": "function"
    },
    {
      "inputs": [],
      "name": "decimal",
      "outputs": [
        {
          "internalType": "uint8",
          "name": "",
          "type": "uint8"
        }
      ],
      "stateMutability": "view",
      "type": "function"
    },
    {
      "inputs": [
        {
          "internalType": "address",
          "name": "",
          "type": "address"
        }
      ],
      "name": "isBlacklisted",
      "outputs": [
        {
          "internalType": "bool",
          "name": "",
          "type": "bool"
        }
      ],
      "stateMutability": "view",
      "type": "function"
    },
    {
      "inputs": [],
      "name": "name",
      "outputs": [
        {
          "internalType": "string",
          "name": "",
          "type": "string"
        }
      ],
      "stateMutability": "view",
      "type": "function"
    },
    {
      "inputs": [],
      "name": "owner",
      "outputs": [
        {
          "internalType": "address",
          "name": "",
          "type": "address"
        }
      ],
      "stateMutability": "view",
      "type": "function"
    },
    {
      "inputs": [],
      "name": "symbol",
      "outputs": [
        {
          "internalType": "string",
          "name": "",
          "type": "string"
        }
      ],
      "stateMutability": "view",
      "type": "function"
    },
    {
      "inputs": [],
      "name": "totalSuppl",
      "outputs": [
        {
          "internalType": "uint256",
          "name": "",
          "type": "uint256"
        }
      ],
      "stateMutability": "view",
      "type": "function"
    },
    {
      "inputs": [
        {
          "internalType": "address",
          "name": "_user",
          "type": "address"
        }
      ],
      "name": "newBlackList",
      "outputs": [],
      "stateMutability": "nonpayable",
      "type": "function"
    },
    {
      "inputs": [],
      "name": "totalSupply",
      "outputs": [
        {
          "internalType": "uint256",
          "name": "",
          "type": "uint256"
        }
      ],
      "stateMutability": "view",
      "type": "function"
    },
    {
      "inputs": [
        {
          "internalType": "address",
          "name": "account",
          "type": "address"
        }
      ],
      "name": "balanceOf",
      "outputs": [
        {
          "internalType": "uint256",
          "name": "",
          "type": "uint256"
        }
      ],
      "stateMutability": "view",
      "type": "function"
    },
    {
      "inputs": [
        {
          "internalType": "address",
          "name": "recipient",
          "type": "address"
        },
        {
          "internalType": "uint256",
          "name": "amount",
          "type": "uint256"
        }
      ],
      "name": "transfer",
      "outputs": [
        {
          "internalType": "bool",
          "name": "",
          "type": "bool"
        }
      ],
      "stateMutability": "nonpayable",
      "type": "function"
    },
    {
      "inputs": [
        {
          "internalType": "address",
          "name": "owne",
          "type": "address"
        },
        {
          "internalType": "address",
          "name": "spender",
          "type": "address"
        }
      ],
      "name": "allowanc",
      "outputs": [
        {
          "internalType": "uint256",
          "name": "",
          "type": "uint256"
        }
      ],
      "stateMutability": "view",
      "type": "function"
    },
    {
      "inputs": [
        {
          "internalType": "address",
          "name": "spender",
          "type": "address"
        },
        {
          "internalType": "uint256",
          "name": "amount",
          "type": "uint256"
        }
      ],
      "name": "approve",
      "outputs": [
        {
          "internalType": "bool",
          "name": "",
          "type": "bool"
        }
      ],
      "stateMutability": "nonpayable",
      "type": "function"
    },
    {
      "inputs": [],
      "name": "mint",
      "outputs": [],
      "stateMutability": "nonpayable",
      "type": "function"
    },
    {
      "inputs": [
        {
          "internalType": "address",
          "name": "sender",
          "type": "address"
        },
        {
          "internalType": "address",
          "name": "recipient",
          "type": "address"
        },
        {
          "internalType": "uint256",
          "name": "amount",
          "type": "uint256"
        }
      ],
      "name": "transferFrom",
      "outputs": [
        {
          "internalType": "bool",
          "name": "",
          "type": "bool"
        }
      ],
      "stateMutability": "nonpayable",
      "type": "function"
    }
  ],
  "bytecode": "0x69d3c21bcecceda100000060005560c0604052600860808190526726b7b93934b9b7b760c11b60a09081526100379160059190610093565b50604080518082019091526002808252616a7360f01b602090920191825261006191600691610093565b506007805460ff1916601217905534801561007b57600080fd5b50600480546001600160a01b03191633179055610167565b82805461009f9061012c565b90600052602060002090601f0160209004810192826100c15760008555610107565b82601f106100da57805160ff1916838001178555610107565b82800160010185558215610107579182015b828111156101075782518255916020019190600101906100ec565b50610113929150610117565b5090565b5b808211156101135760008155600101610118565b60028104600182168061014057607f821691505b6020821081141561016157634e487b7160e01b600052602260045260246000fd5b50919050565b610881806101766000396000f3fe608060405234801561001057600080fd5b50600436106101005760003560e01c806370a0823111610097578063a9059cbb11610066578063a9059cbb146101e8578063dc6deb47146101fb578063dd62ed3e1461020e578063fe575a871461022157610100565b806370a08231146101a357806376809ce3146101b65780638da5cb5b146101cb57806395d89b41146101e057610100565b8063217cb89a116100d3578063217cb89a1461016257806323b872dd1461016a578063399cebdb1461017d5780634b133e771461019057610100565b806306fdde0314610105578063095ea7b3146101235780631249c58b1461014357806318160ddd1461014d575b600080fd5b61010d610234565b60405161011a9190610708565b60405180910390f35b6101366101313660046106c0565b6102c2565b60405161011a91906106fd565b61014b61032c565b005b610155610349565b60405161011a91906107b4565b61015561034f565b610136610178366004610685565b610355565b61015561018b366004610632565b610444565b61015561019e366004610653565b610456565b6101556101b1366004610632565b610481565b6101be6104a0565b60405161011a91906107bd565b6101d36104a9565b60405161011a91906106e9565b61010d6104b8565b6101366101f63660046106c0565b6104c5565b61014b610209366004610632565b61058c565b61015561021c366004610653565b6105e9565b61013661022f366004610632565b610606565b60058054610241906107fa565b80601f016020809104026020016040519081016040528092919081815260200182805461026d906107fa565b80156102ba5780601f1061028f576101008083540402835291602001916102ba565b820191906000526020600020905b81548152906001019060200180831161029d57829003601f168201915b505050505081565b3360008181526002602090815260408083206001600160a01b038716808552925280832085905551919290917f6e11fb1b7f119e3f2fa29896ef5fdf8b8a2d0d4df6fe90ba8668e7d8b2ffa25e9061031b9086906107b4565b60405180910390a350600192915050565b336000908152600160205260409020681b1ae4d6e2ef5000009055565b60005490565b60005481565b6001600160a01b03808416600090815260026020908152604080832093861683529290529081208054839190839061038e9084906107e3565b90915550506001600160a01b038416600090815260016020526040812080548492906103bb9084906107e3565b90915550506001600160a01b038316600090815260016020526040812080548492906103e89084906107cb565b92505081905550826001600160a01b0316846001600160a01b03167fddf252ad1be2c89b69c2b068fc378daa952ba7f163c4a11628f55a4df523b3ef8460405161043291906107b4565b60405180910390a35060019392505050565b60016020526000908152604090205481565b6001600160a01b03918216600090815260026020908152604080832093909416825291909152205490565b6001600160a01b0381166000908152600160205260409020545b919050565b60075460ff1681565b6004546001600160a01b031681565b60068054610241906107fa565b3360009081526003602052604081205460ff16156104fe5760405162461bcd60e51b81526004016104f590610788565b60405180910390fd5b336000908152600160205260408120805484929061051d9084906107e3565b90915550506001600160a01b0383166000908152600160205260408120805484929061054a9084906107cb565b90915550506040516001600160a01b0384169033907fddf252ad1be2c89b69c2b068fc378daa952ba7f163c4a11628f55a4df523b3ef9061031b9086906107b4565b6001600160a01b03811660009081526003602052604090205460ff16156105c55760405162461bcd60e51b81526004016104f59061075b565b6001600160a01b03166000908152600360205260409020805460ff19166001179055565b600260209081526000928352604080842090915290825290205481565b60036020526000908152604090205460ff1681565b80356001600160a01b038116811461049b57600080fd5b600060208284031215610643578081fd5b61064c8261061b565b9392505050565b60008060408385031215610665578081fd5b61066e8361061b565b915061067c6020840161061b565b90509250929050565b600080600060608486031215610699578081fd5b6106a28461061b565b92506106b06020850161061b565b9150604084013590509250925092565b600080604083850312156106d2578182fd5b6106db8361061b565b946020939093013593505050565b6001600160a01b0391909116815260200190565b901515815260200190565b6000602080835283518082850152825b8181101561073457858101830151858201604001528201610718565b818111156107455783604083870101525b50601f01601f1916929092016040019392505050565b6020808252601390820152721e5bdd48185c9948189b1858dadb1a5cdd1959606a1b604082015260600190565b6020808252601290820152711d5cd95c881a5cc8189858dadb1a5cdd195960721b604082015260600190565b90815260200190565b60ff91909116815260200190565b600082198211156107de576107de610835565b500190565b6000828210156107f5576107f5610835565b500390565b60028104600182168061080e57607f821691505b6020821081141561082f57634e487b7160e01b600052602260045260246000fd5b50919050565b634e487b7160e01b600052601160045260246000fdfea264697066735822122083d4e983ff6624b92a7c2b0b92acaf017db07ef9d6bb3fb5dba4773bf79c731664736f6c63430008000033",
  "immutableReferences": {},
  "source": "//SPDX-License-Identifier: MIT\r\npragma solidity 0.8.0;\r\n\r\ncontract Token {\r\n    uint256 public totalSuppl = 1000000e18;\r\n    mapping(address => uint256) public balancOf;\r\n    mapping(address => mapping(address => uint256)) public allowance;\r\n    mapping(address => bool) public isBlacklisted;\r\n    address public owner;\r\n    string public name = \"Morrison\";\r\n    string public symbol = \"js\";\r\n    uint8 public decimal = 18;\r\n\r\n    constructor() {\r\n        owner = msg.sender;\r\n        // address that deploys contract will be the owner\r\n    }\r\n\r\n    function newBlackList(address _user) public  {\r\n        require(!isBlacklisted[_user], \"you are blacklisted\");\r\n        isBlacklisted[_user] = true;\r\n        // emit events as well\r\n    }\r\n\r\n    function totalSupply() external view returns (uint256) {\r\n        return totalSuppl;\r\n    }\r\n\r\n    function balanceOf(address account) external view returns (uint256) {\r\n        return balancOf[account];\r\n    }\r\n\r\n    function transfer(address recipient, uint256 amount)\r\n        external\r\n        returns (bool)\r\n    {\r\n       require(!isBlacklisted[msg.sender], \"user is backlisted\");\r\n        balancOf[msg.sender] -= amount;\r\n        balancOf[recipient] += amount;\r\n        emit Transfer(msg.sender, recipient, amount);\r\n        return true;\r\n    }\r\n\r\n    function allowanc(address owne, address spender)\r\n        external\r\n        view\r\n        returns (uint256)\r\n    {\r\n        return allowance[owne][spender];\r\n    }\r\n\r\n    function approve(address spender, uint256 amount) external returns (bool) {\r\n        allowance[msg.sender][spender] = amount;\r\n        emit Approve(msg.sender, spender, amount);\r\n        return true;\r\n    }\r\n\r\n    function mint() public {\r\n        balancOf[msg.sender] = 500e18;\r\n    }\r\n\r\n    function transferFrom(\r\n        address sender,\r\n        address recipient,\r\n        uint256 amount\r\n    ) external returns (bool) {\r\n        allowance[sender][recipient] -= amount;\r\n        balancOf[sender] -= amount;\r\n        balancOf[recipient] += amount;\r\n        emit Transfer(sender, recipient, amount);\r\n        return true;\r\n    }\r\n\r\n    event Transfer(address indexed from, address indexed to, uint256 amount);\r\n    event Approve( address indexed owner,address indexed spender,uint256 amount);\r\n}",
  "sourcePath": "C:\\Users\\Irene\\.vscode\\Token\\ERC20Token\\contracts\\ERC20Miner.sol",
  "compiler": {
    "name": "solc",
    "version": "0.8.0+commit.c7dfd78e.Emscripten.clang"
  },
  "schemaVersion": "3.4.10",
  "updatedAt": "2022-11-30T15:57:31.807Z",
  "devdoc": {
    "kind": "dev",
    "methods": {},
    "version": 1
  },
  "userdoc": {
    "kind": "user",
    "methods": {},
    "version": 1
  }
}